:100000000C942A000C9434000C9434000C943400AA
:100010000C9434000C9434000C9434000C94340090
:100020000C9434000C9434000C9434000C94340080
:100030000C9434000C9434000C9434000C94340070
:100040000C9434000C9434000C9434000C94340060
:100050000C94340011241FBECFE5D8E0DEBFCDBF25
:100060000E9436000C9471000C94000081E087BB64
:1000700082E088BB20E030E080E090E061E0B19970
:100080002AC04F5F5F4F493C510534F487309105DA
:10009000B1F780E090E0F3CF232B29F040E050E06F
:1000A00021E030E0F3CF0196FC01EE0FFF1F20E0CE
:1000B00030E048B3462748BB4FE55AEE70E0415068
:1000C00050407040E1F700C000002F5F3F4F2E17F7
:1000D0003F0779F7E3CF28B3262728BB20E030E09D
:0600E000D5CFF894FFCF1C
:00000001FF
