:100000000C942A000C9434000C9434000C943400AA
:100010000C9434000C9434000C9434000C94340090
:100020000C9434000C9434000C9434000C94340080
:100030000C9434000C9434000C9434000C94340070
:100040000C9434000C9434000C9434000C94340060
:100050000C94340011241FBECFE5D8E0DEBFCDBF25
:100060000E9479000C9493000C94000084B3836088
:1000700084BBC19A11B882E080B988EF82B9089533
:1000800086B7846A86BF06B607FEFDCF81B1887F3A
:10009000883019F081E090E0089586B78F7D86BFA3
:1000A0008CE383B986B7846886BF06B607FEFDCFAA
:1000B00082B1883341F4C29A87EA91E60197F1F759
:1000C00000C00000C29881B1887F883119F788E2AA
:1000D00083B986B7846886BF06B607FEFDCF81B1B7
:1000E000887F8832B9F686B7846986BF80E090E061
:1000F0000895CF9387B3856087BB0E943600C1E027
:10010000B199FECF87EA91E60197F1F700C00000B0
:10011000B199F6CF88B38C2788BB0E944000019725
:0A01200079F7CF910895F894FFCF0E
:00000001FF
