:100000000C942A000C9447000C9447000C94470071
:100010000C9447000C9447000C9447000C94470044
:100020000C9447000C9447000C9447000C94470034
:100030000C9447000C9447000C9447000C94470024
:100040000C9447000C9447000C9447000C94470014
:100050000C94470011241FBECFE5D4E0DEBFCDBF16
:1000600010E0A0E6B0E0EAEDFCE002C005900D92E1
:10007000AA36B107D9F720E0AAE6B0E001C01D9288
:10008000A638B207E1F70E94D6000C946B060C94D8
:1000900000005F9BFECF8CB1809360009FE9980FBA
:1000A000923020F09DED980F923098F4813639F01F
:1000B000823641F0833211F583E090E005C081E0A3
:1000C00090E002C082E090E0909379008093780005
:1000D00015C020917800309179002130310531F43C
:1000E00090E0909377008093760008C0223031052D
:1000F00029F490E0909375008093740080917800CB
:1001000090917900039739F4109279001092780059
:1001100081E090E0089580E090E008958F929F92B2
:10012000AF92BF92CF92DF92EF92FF920F931F9305
:10013000CF93DF936B017A01E901861B970BBC011A
:10014000990F880B990B0E9472054B015C01C70146
:100150008C199D09B8016C1B7D0B0E943304072E7E
:10016000000C880B990B0E9472059B01AC01C50124
:10017000B4010E94C8046B017C01BE01DD0F880B35
:10018000990B0E9472059B01AC01C701B6010E9448
:100190005C04DF91CF911F910F91FF90EF90DF9062
:1001A000CF90BF90AF909F908F90089581B3806B58
:1001B00081BB87B38F6087BB8FB582628FBD8EB5E1
:1001C00089618EBD8FEF90E097BD86BD83B789664C
:1001D00083BF599A549A80B5866080BD10BC8CE06C
:1001E00089B9C12C52E0D52EC1E0D0E066246A94D2
:1001F00077247394AA24AA94B12C0E9449008130D8
:10020000910509F52091760030917700220F331F78
:10021000220F331F30938500209384008091740057
:1002200090917500880F991F880F991F90938300F4
:10023000809382003093680020936700909366005B
:100240008093650012C0892B81F4809167009091A2
:100250006800909385008093840080916500909160
:100260006600909383008093820080918400909137
:1002700085002091610030916200A9015E5F60916C
:1002800082007091830048175907F4F0F601E21BD1
:10029000F30B8E179F07C4F046175707ACF06E1785
:1002A0007F0794F010926F0010926E001092710010
:1002B00010927000D0936B00C0936A00D0936D00D1
:1002C000C0936C00C298B3C2F901E150FE4FE81729
:1002D000F9070CF454C0D601A21BB30BA817B90739
:1002E0000CF04DC0461757072CF57250072E000C26
:1002F000880B990B0E94720520E030E040E05FE33C
:100300000E94FE0520E030E0A9010E945C040E94EA
:100310003A05709371006093700070936F00609362
:100320006E0010926B0010926A0010926D00109295
:100330006C007DC26A177B070CF079C2D0936B000A
:10034000C0936A00D0936D00C0936C00072E000C20
:10035000880B990B0E94720520E030E040E05FEBD3
:100360000E94FE0520E030E04FE753E40E945C0469
:100370000E943A0570936F0060936E0054C2E617B6
:10038000F7070CF449C0F601E21BF30BE617F70779
:100390000CF042C048175907D4F4D0936D00C093B5
:1003A0006C0010926B0010926A00BC017250072E14
:1003B000000C880B990B0E94720520E030E040E0B1
:1003C0005FE30E94FE0520E030E0A9011CC08E170B
:1003D0009F070CF02CC210926D0010926C00D0930D
:1003E0006B00C0936A00BC01990F880B990B0E94A7
:1003F000720520E030E040E05FEB0E94FE0520E067
:1004000030E04FE753E40E945C040E943A05709389
:100410007100609370004FC1C29A009182001091E8
:10042000830080916100909162009601281B390B36
:10043000021713070CF0DDC0E0908400F0908500F7
:100440009E5F8E159F050CF060C0970132504901E8
:100450008FEF93E0801B910BE816F90634F5D093EB
:100460006B00C0936A00D0936D00C0936C00B8011C
:10047000012E000C880B990B0E94720520E030E0E1
:1004800040E05FEB0E94FE0520E030E04FE753E4E0
:100490000E945C040E943A057093710060937000A2
:1004A000B401990C880B990B30C1D0936D00C093A7
:1004B0006C0010926B0010926A00B901330F880B28
:1004C000990B0E94720520E030E040E05FE30E945B
:1004D000FE0520E030E0A9010E945C040E943A057C
:1004E00070937100609370008FEF93E08E199F09F5
:1004F000B801681B790B072E000C880B990B0E9422
:1005000072051B012C01C401C0C0E216F3060CF0F9
:100510008EC10E151F051CF5D0936B00C0936A00A9
:10052000D0936D00C0936C00B801012E000C880BB5
:10053000990B0E94720520E030E040E05FEB0E94E2
:10054000FE0520E030E04FE753E40E945C040E9487
:100550003A0570936F0060936E00B7012AC0C29A8B
:1005600010926D0010926C00D0936B00C0936A00E3
:100570000091840010918500B801012E000C880BB9
:10058000990B0E94720520E030E040E05FEB0E9492
:10059000FE0520E030E04FE753E40E945C040E9437
:1005A0003A0570936F0060936E00609182007091C5
:1005B0008300601B710B072E000C880B990B0E94A7
:1005C00072051B012C01C301801B910BB5010E9418
:1005D0003304072E000C880B990B0E9472059B01B7
:1005E000AC01C201B1010E94C80420E030E0A901C1
:1005F00016C1C2980091840010918500809161001D
:1006000090916200F601E81BF90B609182007091F5
:1006100083000E171F070CF094C088248A9483E08F
:10062000982E861A970A9B013250790180169106FE
:100630000CF046C010926B0010926A0010926D0090
:1006400010926C00B901330F880B990B0E94720550
:1006500020E030E040E05FE30E94FE0520E030E073
:10066000A9010E945C040E943A0570937100609396
:100670007000B80168197909072E000C880B990BD6
:100680000E9472051B012C01C701B5010E943304B1
:10069000072E000C880B990B0E9472059B01AC0180
:1006A000C201B1010E94C80420E030E0A9010E940B
:1006B0005C040E943A0570936F0060936E00B7C0AF
:1006C00010926D0010926C00D0936B00C0936A0082
:1006D000B801012E000C880B990B0E94720520E0D6
:1006E00030E040E05FEB0E94FE0520E030E04FE7A5
:1006F00053E40E945C040E943A0570937100609379
:100700007000B701FF0C880B990B0E9472051B014A
:100710002C01C301801B910B61E07FEF0E94330429
:10072000072E000C880B990B0E9472059B01AC01EF
:10073000C201B1010E94C80420E030E04FE753E459
:10074000B6CFC80192504C01FB01F2507F016017F7
:1007500071074CF5D0936D00C0936C0010926B0044
:1007600010926A00BC01990F880B990B0E947205C8
:1007700020E030E040E05FE30E94FE0520E030E052
:10078000A9010E945C040E943A0570936F00609377
:100790006E00B701FF0C880B990B0E9472051B01BC
:1007A0002C01C40128C010926B0010926A001092B4
:1007B0006D0010926C00BF01FF0F880B990B0E9417
:1007C000720520E030E040E05FE30E94FE0520E09B
:1007D00030E0A9010E945C040E943A0570936F000A
:1007E00060936E00B401990C880B990B0E947205FE
:1007F0001B012C01C70161E07FEF0E943304072E2B
:10080000000C880B990B0E9472059B01AC01C20180
:10081000B1010E94C80420E030E04FE753E40E9499
:100820005C040E943A05709371006093700080919F
:100830006C0090916D00019711F4C09801C0C09AAE
:1008400080916A0090916B00019711F4C19801C0EA
:10085000C19A809170008CBF80916E0090916F0062
:1008600099BD88BDCACC97FB072E16F4009407D01B
:1008700077FD09D00E94470407FC05D03EF490950F
:1008800081959F4F0895709561957F4F0895AA1B9C
:10089000BB1B51E107C0AA1FBB1FA617B70710F06B
:1008A000A61BB70B881F991F5A95A9F7809590959D
:1008B000BC01CD0108955058BB27AA270E9473049C
:1008C0000C94C4050E94B60538F00E94BD0520F0C6
:1008D00039F49F3F19F426F40C94B3050EF4E09517
:1008E000E7FB0C94AD05E92F0E94D50558F3BA1724
:1008F000620773078407950720F079F4A6F50C9436
:10090000F7050EF4E0950B2EBA2FA02D0B01B901BF
:1009100090010C01CA01A0011124FF27591B99F075
:10092000593F50F4503E68F11A16F040A22F232F81
:10093000342F4427585FF3CF469537952795A795D1
:10094000F0405395C9F77EF41F16BA0B620B730B78
:10095000840BBAF09150A1F0FF0FBB1F661F771FE9
:10096000881FC2F70EC0BA0F621F731F841F48F49E
:10097000879577956795B795F7959E3F08F0B0CF27
:100980009395880F08F09927EE0F9795879508950E
:100990000E94DC040C94C4050E94BD0558F00E941E
:1009A000B60540F029F45F3F29F00C94AD055111D4
:1009B0000C94F8050C94B3050E94D50568F39923AF
:1009C000B1F3552391F3951B550BBB27AA2762174B
:1009D0007307840738F09F5F5F4F220F331F441F58
:1009E000AA1FA9F335D00E2E3AF0E0E832D091508C
:1009F0005040E695001CCAF72BD0FE2F29D0660F79
:100A0000771F881FBB1F261737074807AB07B0E8BB
:100A100009F0BB0B802DBF01FF2793585F4F3AF0C1
:100A20009E3F510578F00C94AD050C94F8055F3F9E
:100A3000E4F3983ED4F3869577956795B795F79547
:100A40009F5FC9F7880F911D9695879597F908952F
:100A5000E1E0660F771F881FBB1F621773078407CB
:100A6000BA0720F0621B730B840BBA0BEE1F88F7DA
:100A7000E09508950E9441056894B1110C94F80521
:100A800008950E94DD0588F09F5798F0B92F9927A7
:100A9000B751B0F0E1F0660F771F881F991F1AF069
:100AA000BA95C9F714C0B13091F00E94F705B1E0D2
:100AB00008950C94F705672F782F8827B85F39F0D1
:100AC000B93FCCF3869577956795B395D9F73EF402
:100AD00090958095709561957F4F8F4F9F4F0895AA
:100AE000E89409C097FB3EF49095809570956195C8
:100AF0007F4F8F4F9F4F9923A9F0F92F96E9BB277E
:100B00009395F695879577956795B795F111F8CFF9
:100B1000FAF4BB0F11F460FF1BC06F5F7F4F8F4F64
:100B20009F4F16C0882311F096E911C0772321F05A
:100B30009EE8872F762F05C0662371F096E8862FF2
:100B400070E060E02AF09A95660F771F881FDAF749
:100B5000880F9695879597F9089597F99F6780E88C
:100B600070E060E008959FEF80EC089500240A94FF
:100B70001616170618060906089500240A94121678
:100B80001306140605060895092E0394000C11F4AB
:100B9000882352F0BB0F40F4BF2B11F460FF04C058
:100BA0006F5F7F4F8F4F9F4F089557FD9058440FB1
:100BB000551F59F05F3F71F04795880F97FB991FBC
:100BC00061F09F3F79F08795089512161306140679
:100BD000551FF2CF4695F1DF08C016161706180606
:100BE000991FF1CF86957105610508940895E894E1
:100BF000BB2766277727CB0197F908950E94110636
:100C00000C94C4050E94B60538F00E94BD0520F082
:100C1000952311F00C94AD050C94B30511240C949C
:100C2000F8050E94D50570F3959FC1F3950F50E02C
:100C3000551F629FF001729FBB27F00DB11D639F8E
:100C4000AA27F00DB11DAA1F649F6627B00DA11D34
:100C5000661F829F2227B00DA11D621F739FB00DDA
:100C6000A11D621F839FA00D611D221F749F33274A
:100C7000A00D611D231F849F600D211D822F762FE3
:100C80006A2F11249F5750409AF0F1F088234AF0C0
:100C9000EE0FFF1FBB1F661F771F881F915050402C
:100CA000A9F79E3F510580F00C94AD050C94F80512
:100CB0005F3FE4F3983ED4F3869577956795B795B3
:100CC000F795E7959F5FC1F7FE2B880F911D9695CD
:0A0CD000879597F90895F894FFCF77
:0A0CDA003032003200000200020078
:00000001FF
