:100000000C942A000C9447000C9447000C94470071
:100010000C9447000C9447000C9447000C94470044
:100020000C9447000C9447000C9447000C94470034
:100030000C9447000C9447000C9447000C94470024
:100040000C9468040C9447000C9447000C944700EF
:100050000C94470011241FBECFE5D8E0DEBFCDBF12
:1000600010E0A0E6B0E0E4E2FEE002C005900D92F0
:10007000A836B107D9F720E0A8E6B0E001C01D928C
:10008000A037B207E1F70E9491000C9410070C947E
:1000900000008F929F92AF92BF92CF92DF92EF9229
:1000A000FF920F931F93CF93DF936B017A01E901C6
:1000B000861B970BBC01990F880B990B0E941706A2
:1000C0004B015C01C7018C199D09B8016C1B7D0BAC
:1000D0000E94D804072E000C880B990B0E9417066B
:1000E0009B01AC01C501B4010E946D056B017C014F
:1000F000BE01DD0F880B990B0E9417069B01AC0116
:10010000C701B6010E940105DF91CF911F910F91A8
:10011000FF90EF90DF90CF90BF90AF909F908F9027
:1001200008952F923F924F925F926F927F928F929B
:100130009F92AF92BF92CF92DF92EF92FF920F9376
:100140001F93CF93DF9300D000D000D0CDB7DEB7A0
:10015000789481B3806B81BB87B38B6087BB80E46D
:1001600087B986B18C6C86B98FB5806A8FBD8EB524
:1001700081618EBD8FE790E097BD86BDE12CF12CAB
:10018000C12CD12CA12CB12C812C912C66246A94E9
:10019000712C412C92E0592E22242A94332433943A
:1001A00020916E0030916F003E832D83809160001E
:1001B00090916100BC017E5F00916C0010916D0018
:1001C00062177307BCF09201281B390B4D815E81C9
:1001D000421753077CF06017710764F0021713078A
:1001E0004CF09201281B390BED81FE81E217F307D9
:1001F000D4F427C02CB53DB5232B79F02CB53DB5F3
:10020000283C310550F020916A0030916B002F5F3F
:100210003F4F30936B0020936A002D813E8162171F
:1002200073077CF0DECF601771075CF002171307CD
:1002300044F08091680090916900019709F028C30B
:10024000AEC29C0121503E4F4D815E81241735077F
:10025000E4F1A201481B590BED81FE814E175F07A7
:10026000A4F560177107BCF4B8017250072E000C9A
:10027000880B990B0E94170620E030E040E05FE316
:100280000E94A30620E030E0A9010E9401050E941F
:10029000DF054B01C2C1041715070CF080C2B8017D
:1002A000110F880B990B0E94170620E030E040E008
:1002B0005FEB0E94A30620E030E04FE753E40E948A
:1002C00001050E94DF055B0192C020173107F4F1A0
:1002D0009201281B390B20173107C4F54D815E812F
:1002E00064177507BCF4BA017250072E000C880B16
:1002F000990B0E94170620E030E040E05FE30E9487
:10030000A30620E030E0A9010E9401050E94DF055C
:100310005B01ABC08D819E81821793070CF03FC2B9
:10032000BC01990F880B990B0E94170620E030E062
:1003300040E05FEB0E94A30620E030E04FE753E48B
:100340000E9401050E94DF054B01A5C1F201E81BD7
:10035000F90B0E171F070CF014C12D813E81621797
:1003600073070CF084C0325049018FEF93E0801B7B
:10037000910B4D815E8148175907DCF5B801012EBC
:10038000000C880B990B0E94170620E030E040E03B
:100390005FEB0E94A30620E030E04FE753E40E94A9
:1003A00001050E94DF055B01B401990C880B990BD4
:1003B0000E9417066B017C01C101801B910B61E05B
:1003C0007FEF0E94D804072E000C880B990B0E9427
:1003D00017069B01AC01C701B6010E946D0520E024
:1003E00030E04FE753E40E9401050E94DF056B01F6
:1003F00084C0B901330F880B990B0E94170620E0C7
:1004000030E040E05FE30E94A30620E030E0A90175
:100410000E9401050E94DF055B018FEF93E0ED81F3
:10042000FE818E1B9F0BB801681B790B072E000CF9
:10043000880B990B0E9417066B017C01C401B30164
:100440000E94D804072E000C880B990B0E941706F7
:100450009B01AC01C701B6010E946D0520E030E0B0
:10046000A9010E9401050E94DF057B0159C12D8170
:100470003E812E173F070CF092C1021713070CF0B4
:100480003FC0B801012E000C880B990B0E94170683
:1004900020E030E040E05FEB0E94A30620E030E087
:1004A0004FE753E40E9401050E94DF056B016D8157
:1004B0007E81601B710B072E000C880B990B0E942C
:1004C00017064B015C01C101801B910BB3010E9417
:1004D000D804072E000C880B990B0E9417069B016D
:1004E000AC01C501B4010E946D0520E030E0A90116
:1004F0000E9401050E94DF055B01E12CF12C52C135
:100500004D815E81BA01550F880B990B0E94170629
:1005100020E030E040E05FEB0E94A30620E030E006
:100520004FE753E40E9401050E94DF056B01B8010B
:100530008D819E81681B790B072E000C880B990B0F
:100540000E9417064B015C01C101ED81FE818E1BEB
:100550009F0BB3010E94D804072E000C880B990B47
:100560000E9417069B01AC01C501B4010E946D05F4
:1005700020E030E0A9010E9401050E94DF054B0147
:100580008BC09801325069014D815E814E175F0723
:100590000CF085C08FEF93E0801B910B8C018417CA
:1005A0009507ECF5B901330F880B990B0E941706DC
:1005B00020E030E040E05FE30E94A30620E030E06E
:1005C000A9010E9401050E94DF054B016D817E811A
:1005D000601B710B072E000C880B990B0E941706ED
:1005E00069837A838B839C83C601B3010E94D804FC
:1005F000072E000C880B990B0E9417069B01AC017B
:1006000069817A818B819C810E946D0520E030E0B8
:10061000A9010E9401050E94DF057B01BCC0ED819C
:10062000FE81BF01FF0F880B990B0E94170620E087
:1006300030E040E05FEB0E94A30620E030E04FE7AF
:1006400053E40E9401050E94DF054B01B601DD0C59
:10065000880B990B0E9417066B017C01C1012D814B
:100660003E81821B930B61E07FEF0E94D804072E2E
:10067000000C880B990B0E9417069B01AC01C70167
:10068000B6010E946D0520E030E04FE753E40E9480
:1006900001050E94DF056B01E12CF12C7EC04D812C
:1006A0005E8152505A8349838D819E8108171907B4
:1006B000D4F5BA01550F880B990B0E94170620E05C
:1006C00030E040E05FE30E94A30620E030E0A901B3
:1006D0000E9401050E94DF057B01B601DD0C880B3D
:1006E000990B0E9417064B015C0189819A8161E098
:1006F0007FEF0E94D804072E000C880B990B0E94F4
:1007000017069B01AC01C501B4010E946D0520E0F4
:1007100030E04FE753E40E9401050E94DF055B01D2
:10072000C12CD12C3FC0B901330F880B990B0E940B
:10073000170620E030E040E05FE30E94A30620E0DF
:1007400030E0A9010E9401050E94DF057B01E981DB
:10075000FA81BF01FF0F880B990B0E9417064B010E
:100760005C01C60161E07FEF0E94D804072E000CF7
:10077000880B990B0E9417069B01AC01C501B401BF
:100780000E946D0520E030E04FE753E40E94010530
:100790000E94DF054B01C12CD12CA12CB12C81145E
:1007A0009104F9F4C098B3016A197B09072E000C73
:1007B000880B990B0E94170620E030E040E05FE3D1
:1007C0000E94A3069B01AC0160E070E08EEF92E412
:1007D0000E9400050E94E6057BBD6ABD812C912C1C
:1007E0001CC0C09AB30168197909072E000C880B48
:1007F000990B0E94170620E030E040E05FE30E9482
:10080000A3069B01AC0160E070E08EEF92E40E94D1
:1008100000050E94E6057BBD6ABDE114F10429F4E0
:10082000C198B3016C197D0904C0C19AB3016E1956
:100830007F09072E000C880B990B0E94170620E0F9
:1008400030E040E05FE30E94A3069B01AC0160E062
:1008500070E08EEF92E40E9400050E94E60579BDEB
:1008600068BD80916800909169000197C1F0809106
:100870006E0090916F009093670080936600809166
:100880006C0090916D00909365008093640088CC1B
:10089000E12CF12CC12CD12CA12CB12C83CF26968C
:1008A0000FB6F894DEBF0FBECDBFDF91CF911F9181
:1008B0000F91FF90EF90DF90CF90BF90AF909F90FF
:1008C0008F907F906F905F904F903F902F90089502
:1008D0001F920F920FB60F9211242F933F934F93B5
:1008E0005F936F937F938F939F9384B125B190E033
:1008F000922B27B1203441F0213461F490936D00A4
:1009000080936C0080E405C090936F0080936E002C
:1009100081E487B9209166003091670040916E00B4
:1009200050916F00421B530B8091620090916300C5
:10093000841795071CF4280F391F09C066277727ED
:10094000681B790B4617570734F4281B390B309373
:100950006F0020936E0020916400309165004091FB
:100960006C0050916D00421B530B841795071CF4CB
:10097000820F931F0BC066277727681B790B4617DA
:10098000570744F4A901481B590BCA0190936D0005
:1009900080936C00369A9F918F917F916F915F91B8
:1009A0004F913F912F910F900FBE0F901F90189570
:1009B00097FB072E16F4009407D077FD09D00E940C
:1009C000EC0407FC05D03EF4909581959F4F089567
:1009D000709561957F4F0895AA1BBB1B51E107C01D
:1009E000AA1FBB1FA617B70710F0A61BB70B881FBF
:1009F000991F5A95A9F780959095BC01CD0108954E
:100A00005058BB27AA270E9418050C9469060E941B
:100A10005B0638F00E94620620F039F49F3F19F41B
:100A200026F40C9458060EF4E095E7FB0C9452065D
:100A3000E92F0E947A0658F3BA17620773078407F2
:100A4000950720F079F4A6F50C949C060EF4E09539
:100A50000B2EBA2FA02D0B01B90190010C01CA0178
:100A6000A0011124FF27591B99F0593F50F4503E23
:100A700068F11A16F040A22F232F342F4427585F15
:100A8000F3CF469537952795A795F0405395C9F72D
:100A90007EF41F16BA0B620B730B840BBAF09150E5
:100AA000A1F0FF0FBB1F661F771F881FC2F70EC084
:100AB000BA0F621F731F841F48F487957795679557
:100AC000B795F7959E3F08F0B0CF9395880F08F043
:100AD0009927EE0F9795879508950E9481050C94AC
:100AE00069060E94620658F00E945B0640F029F4F5
:100AF0005F3F29F00C94520651110C949D060C9402
:100B000058060E947A0668F39923B1F3552391F3AE
:100B1000951B550BBB27AA2762177307840738F06C
:100B20009F5F5F4F220F331F441FAA1FA9F335D0C9
:100B30000E2E3AF0E0E832D091505040E695001C7D
:100B4000CAF72BD0FE2F29D0660F771F881FBB1F37
:100B5000261737074807AB07B0E809F0BB0B802D15
:100B6000BF01FF2793585F4F3AF09E3F510578F041
:100B70000C9452060C949D065F3FE4F3983ED4F328
:100B8000869577956795B795F7959F5FC9F7880F15
:100B9000911D9695879597F90895E1E0660F771F67
:100BA000881FBB1F621773078407BA0720F0621BF8
:100BB000730B840BBA0BEE1F88F7E09508950E9423
:100BC000E6056894B1110C949D0608950E94820672
:100BD00088F09F5798F0B92F9927B751B0F0E1F0FE
:100BE000660F771F881F991F1AF0BA95C9F714C0AE
:100BF000B13091F00E949C06B1E008950C949C06DF
:100C0000672F782F8827B85F39F0B93FCCF38695E6
:100C100077956795B395D9F73EF490958095709543
:100C200061957F4F8F4F9F4F0895E89409C097FBC0
:100C30003EF490958095709561957F4F8F4F9F4FB3
:100C40009923A9F0F92F96E9BB279395F6958795F7
:100C500077956795B795F111F8CFFAF4BB0F11F4BA
:100C600060FF1BC06F5F7F4F8F4F9F4F16C0882361
:100C700011F096E911C0772321F09EE8872F762F97
:100C800005C0662371F096E8862F70E060E02AF0D8
:100C90009A95660F771F881FDAF7880F96958795C4
:100CA00097F9089597F99F6780E870E060E00895EC
:100CB0009FEF80EC089500240A9416161706180674
:100CC0000906089500240A94121613061406050650
:100CD0000895092E0394000C11F4882352F0BB0FE1
:100CE00040F4BF2B11F460FF04C06F5F7F4F8F4F44
:100CF0009F4F089557FD9058440F551F59F05F3F7F
:100D000071F04795880F97FB991F61F09F3F79F02D
:100D100087950895121613061406551FF2CF4695AF
:100D2000F1DF08C0161617061806991FF1CF869531
:100D30007105610508940895E894BB276627772715
:100D4000CB0197F908950E94B6060C9469060E949B
:100D50005B0638F00E94620620F0952311F00C9497
:100D600052060C94580611240C949D060E947A0693
:100D700070F3959FC1F3950F50E0551F629FF001EE
:100D8000729FBB27F00DB11D639FAA27F00DB11D07
:100D9000AA1F649F6627B00DA11D661F829F222790
:100DA000B00DA11D621F739FB00DA11D621F839F17
:100DB000A00D611D221F749F3327A00D611D231FED
:100DC000849F600D211D822F762F6A2F11249F573B
:100DD00050409AF0F1F088234AF0EE0FFF1FBB1F3E
:100DE000661F771F881F91505040A9F79E3F5105FD
:100DF00080F00C9452060C949D065F3FE4F3983EFD
:100E0000D4F3869577956795B795F795E7959F5FA6
:100E1000C1F7FE2B880F911D9695879597F9089538
:040E2000F894FFCF74
:080E240014003200000200027C
:00000001FF
