:100000000C942A000C9434000C9434000C943400AA
:100010000C9434000C9434000C9434000C94340090
:100020000C9434000C9434000C9434000C94340080
:100030000C9434000C9434000C9434000C94340070
:100040000C9434000C9434000C9434000C94340060
:100050000C94340011241FBECFE5D8E0DEBFCDBF25
:100060000E9436000C9456000C9400008C9A8FB5B8
:1000700082688FBD8EB589618EBD8FEF90E097BD90
:1000800086BD24E630E088EC90E039BD28BDE7EA83
:10009000F1E63197F1F700C0000099BD88BDE7EAAD
:1000A000F1E63197F1F700C00000EFCFF894FFCFF1
:00000001FF
