:100000000C942A000C9434000C9434000C943400AA
:100010000C9434000C9434000C9434000C94340090
:100020000C9434000C9434000C9434000C94340080
:100030000C9434000C9434000C9434000C94340070
:100040000C9434000C9434000C9434000C94340060
:100050000C94340011241FBECFE5D8E0DEBFCDBF25
:100060000E9462000C946A000C94000087B3806ABE
:1000700087BB88B3826188BB8DB180658DB90895D7
:10008000BE9A6E9A0895C29A81E48FB9779BFECF8B
:1000900087EA91E60197F1F700C00000C298089541
:1000A000C29A779BFECF8FB1813421F498B381E05F
:1000B000892788BB87EA91E60197F1F700C0000025
:1000C000C298089587B3856087BB0E9440000E9454
:0800D0005000FDCFF894FFCFB2
:00000001FF
