:100000000C942A000C9434000C9434000C943400AA
:100010000C9434000C9434000C9434000C94340090
:100020000C9434000C9434000C9434000C94340080
:100030000C9434000C9434000C9434000C94340070
:100040000C9434000C9434000C9434000C94340060
:100050000C94340011241FBECFE5D8E0DEBFCDBF25
:100060000E9436000C9460000C94000081E087BB75
:1000700082E088BB20E030E080E090E040E050E0AB
:1000800061E0B19913C00196813971E09707CCF313
:100090004115510519F080E090E0F3CF88B3862731
:1000A00088BB80E090E041E050E0EBCF2F5F3F4F16
:1000B000293C310534F320E030E040E050E0E1CF6E
:0400C000F894FFCFE2
:00000001FF
