:100000000C942A000C9447000C9447000C94470071
:100010000C9447000C9447000C9447000C94470044
:100020000C9447000C9447000C9447000C94470034
:100030000C9447000C9447000C9447000C94470024
:100040000C949D030C9447000C9447000C944700BB
:100050000C94470011241FBECFE5D8E0DEBFCDBF12
:1000600010E0A0E6B0E0E8E4FDE002C005900D92EB
:10007000A836B107D9F720E0A8E6B0E001C01D928C
:10008000A037B207E1F70E9491000C94A2060C94ED
:1000900000008F929F92AF92BF92CF92DF92EF9229
:1000A000FF920F931F93CF93DF936B017A01E901C6
:1000B000861B970BBC01990F880B990B0E94A90511
:1000C0004B015C01C7018C199D09B8016C1B7D0BAC
:1000D0000E946A04072E000C880B990B0E94A90548
:1000E0009B01AC01C501B4010E94FF046B017C01BE
:1000F000BE01DD0F880B990B0E94A9059B01AC0185
:10010000C701B6010E949304DF91CF911F910F9117
:10011000FF90EF90DF90CF90BF90AF909F908F9027
:100120000895CF93DF9300D000D0CDB7DEB7789499
:1001300082E390E09093630080936200909361006B
:100140008093600081B3806B81BBBB9A80E487B9E8
:1001500086B18C6C86B98FB5826A8FBD8EB5896188
:100160008EBD8FEF90E097BD86BD83B7896683BF54
:1001700085B5896685BDE12CF12C612C712CC12CD3
:10018000D12CA12CB12C212C22E0322E00916E001A
:1001900010916F00409060005090610042012EEF7E
:1001A000921A80916C0090916D009C838B83E091FA
:1001B0006800F0916900FA83E98380169106B4F033
:1001C000C101841995090817190784F02B813C8116
:1001D000821693065CF02817390744F0319709F42A
:1001E0006FC2E12CF12C612C712C87C0C2018150AF
:1001F0009E4F80179107F4F19101241935092017BA
:100200003107C4F58B819C8188169906BCF4BC012A
:100210007250072E000C880B990B0E94A90520E054
:1002200030E040E05FE30E94350620E030E0A901C5
:100230000E9493040E9471055B013DC2EB81FC8129
:10024000E217F3070CF03CC2BF01FF0F880B990BBC
:100250000E94A90520E030E040E05FEB0E943506F7
:1002600020E030E04FE753E40E9493040E947105C0
:100270006B0197C02B813C81821793070CF440C01F
:10028000C1018419950982179307D4F58016910648
:10029000CCF4B8017250072E000C880B990B0E9409
:1002A000A90520E030E040E05FE30E94350620E051
:1002B00030E0A9010E9493040E9471056B01E12CBA
:1002C000F12CC0C0081719070CF0FAC1B801110FC2
:1002D000880B990B0E94A90520E030E040E05FEB1D
:1002E0000E94350620E030E04FE753E40E9493047B
:1002F0000E9471053B01E12CF12CC12CD12CF4C0E2
:10030000C10184199509EB81FC81E817F9070CF00C
:100310003FC1801691060CF098C0AA24AA9493E0DD
:10032000B92EAE1ABF0A7801E818F9080A151B059C
:10033000D4F5BF01FF0F880B990B0E94A90520E09F
:1003400030E040E05FEB0E94350620E030E04FE710
:1003500053E40E9493040E9471056B01B701FF0CE6
:10036000880B990B0E94A9052B013C01C501881936
:10037000990961E87FEF0E946A04072E000C880B40
:10038000990B0E94A9059B01AC01C301B2010E9417
:10039000FF0420E030E04FE753E40E9493040E9402
:1003A00071053B019FC0B701FF0C880B990B0E94A0
:1003B000A9056B017C018FEF91E0841995096FEF1E
:1003C00070E00E946A04072E000C880B990B0E94B3
:1003D000A9059B01AC01C701B6010E94FF0420E002
:1003E00030E0A9010E9493040E9471056B018FEF18
:1003F00093E0801B910B6B817C81681B790B072E2E
:10040000000C880B990B0E94A9054B015C01C801E7
:10041000925061E87FEF0E946A04072E000C880B5F
:10042000990B0E94A9059B01AC01C501B4010E9472
:10043000FF0420E030E04EEF52E40E9493040E945B
:1004400071057B01612C712C4FC0081719070CF046
:1004500037C12B813C81201731070CF048C0B9010E
:10046000330F880B990B0E94A90520E030E040E093
:100470005FEB0E94350620E030E04FE753E40E9436
:1004800093040E9471053B01B8018B819C81681B1C
:10049000790B072E000C880B990B0E94A9056B01A4
:1004A0007C018FEF91E084199509EB81FC818E1B13
:1004B0009F0B6FE770E00E946A04072E000C880B08
:1004C000990B0E94A9059B01AC01C701B6010E94CE
:1004D000FF0420E030E040E053E40E9493040E94D7
:1004E00071056B01E12CF12CA12CB12CE9C0B801F4
:1004F000012E000C880B990B0E94A9056B017C0151
:100500008FEF91E08419950961E07FEF0E946A0402
:10051000072E000C880B990B0E94A9059B01AC01CA
:10052000C701B6010E94FF0420E030E04FE753E42A
:100530000E9493040E9471053B016B817C81601BCA
:10054000710B072E000C880B990B0E94A9056B01FB
:100550007C018FEF91E0801B910B6FE770E00E94B0
:100560006A04072E000C880B990B0E94A9059B01B9
:10057000AC01C701B6010E94FF0420E030E0A901F0
:100580000E9493040E9471055B01E12CF12C96C03E
:10059000081719070CF04CC088248A9483E0982E21
:1005A0002B813C81821A930A801691060CF088C038
:1005B000B9017250072E000C880B990B0E94A905F7
:1005C00020E030E040E05FE30E94350620E030E0CC
:1005D000A9010E9493040E9471057B01B80168196A
:1005E0007909072E000C880B990B0E94A9055B0165
:1005F0006C018FEF91E084199509881999096FEFC3
:1006000070E00E946A04072E000C880B990B0E9470
:10061000A9059B01AC01C601B5010E94FF0420E0C1
:1006200030E0A9010E9493040E9471055B0144C05F
:100630008B819C81801791070CF442C0BC017250E1
:10064000072E000C880B990B0E94A90520E030E0D2
:1006500040E05FE30E94350620E030E0A9010E94FF
:1006600093040E9471055B01B80168197909072E8E
:10067000000C880B990B0E94A9056B017C018B81F2
:100680009C818819990961E07FEF0E946A04072E16
:10069000000C880B990B0E94A9059B01AC01C701B6
:1006A000B6010E94FF0420E030E04FE753E40E94CF
:1006B00093040E9471057B01612C712CC12CD12CFB
:1006C000E981FA81319791F5C114D10421F4F2E363
:1006D000AF1AB10806C0A114B10419F422E3C21A7A
:1006E000D108E114F10421F432E3631A710806C061
:1006F0006114710419F482E3E81AF108D7FE02C00C
:10070000C12CD12CB7FE02C0A12CB12CF7FE02C027
:10071000E12CF12C77FE02C0612C712C30926D001F
:1007200020926C0030926F0020926E00DBBCCABC3D
:10073000B9BCA8BCECBE63BC29CD1F920F920FB60A
:100740000F9211242F933F934F935F936F937F9357
:100750008F939F93EF93FF9384B125B190E0922BF9
:1007600027B1203441F0213461F490936D008093DF
:100770006C0080E405C090936F0080936E0081E46C
:1007800087B9409166005091670020916E003091CA
:100790006F00241B350B80916200909163008217DB
:1007A000930724F49A01280F391F0AC06627772778
:1007B000681B790B261737073CF49A01281B390B65
:1007C00030936F0020936E0020916400309165009B
:1007D00060916C0070916D00621B730B8617970718
:1007E0001CF4820F931F0BC0EE27FF27E81BF90BA9
:1007F0006E177F0744F4B901681B790BCB01909306
:100800006D0080936C0080916E0090916F00841752
:10081000950781F480916C0090916D008217930789
:1008200049F480916A0090916B00019690936B005F
:1008300080936A00369A80916A0090916B008031B3
:1008400097424CF120916E0030916F0060916000F2
:1008500070916100AB015E5F421753078CF080E03E
:1008600092E0861B970B2817390754F020916C00F3
:1008700030916D00421753071CF0281739075CF4BC
:1008800081E090E0909369008093680010926B0083
:1008900010926A00369880916E0090916F0090934C
:1008A00067008093660080916C0090916D0090933A
:1008B000650080936400FF91EF919F918F917F91EC
:1008C0006F915F914F913F912F910F900FBE0F90BD
:1008D0001F90189597FB072E16F4009407D077FD0C
:1008E00009D00E947E0407FC05D03EF490958195C6
:1008F0009F4F0895709561957F4F0895AA1BBB1B6C
:1009000051E107C0AA1FBB1FA617B70710F0A61B0F
:10091000B70B881F991F5A95A9F780959095BC0130
:10092000CD0108955058BB27AA270E94AA040C9411
:10093000FB050E94ED0538F00E94F40520F039F423
:100940009F3F19F426F40C94EA050EF4E095E7FBBA
:100950000C94E405E92F0E940C0658F3BA176207BD
:1009600073078407950720F079F4A6F50C942E06FA
:100970000EF4E0950B2EBA2FA02D0B01B9019001BA
:100980000C01CA01A0011124FF27591B99F0593FFE
:1009900050F4503E68F11A16F040A22F232F342F46
:1009A0004427585FF3CF469537952795A795F04094
:1009B0005395C9F77EF41F16BA0B620B730B840BA9
:1009C000BAF09150A1F0FF0FBB1F661F771F881F61
:1009D000C2F70EC0BA0F621F731F841F48F48795B9
:1009E00077956795B795F7959E3F08F0B0CF9395AB
:1009F000880F08F09927EE0F9795879508950E9424
:100A000013050C94FB050E94F40558F00E94ED05B7
:100A100040F029F45F3F29F00C94E40551110C9447
:100A20002F060C94EA050E940C0668F39923B1F393
:100A3000552391F3951B550BBB27AA276217730704
:100A4000840738F09F5F5F4F220F331F441FAA1F98
:100A5000A9F335D00E2E3AF0E0E832D09150504054
:100A6000E695001CCAF72BD0FE2F29D0660F771F02
:100A7000881FBB1F261737074807AB07B0E809F0E8
:100A8000BB0B802DBF01FF2793585F4F3AF09E3F6D
:100A9000510578F00C94E4050C942F065F3FE4F3C5
:100AA000983ED4F3869577956795B795F7959F5FB0
:100AB000C9F7880F911D9695879597F90895E1E0FC
:100AC000660F771F881FBB1F621773078407BA075B
:100AD00020F0621B730B840BBA0BEE1F88F7E095B6
:100AE00008950E9478056894B1110C942F0608951A
:100AF0000E94140688F09F5798F0B92F9927B75194
:100B0000B0F0E1F0660F771F881F991F1AF0BA95B1
:100B1000C9F714C0B13091F00E942E06B1E00895DB
:100B20000C942E06672F782F8827B85F39F0B93FCD
:100B3000CCF3869577956795B395D9F73EF4909564
:100B40008095709561957F4F8F4F9F4F0895E894E2
:100B500009C097FB3EF490958095709561957F4F05
:100B60008F4F9F4F9923A9F0F92F96E9BB279395B3
:100B7000F695879577956795B795F111F8CFFAF4C3
:100B8000BB0F11F460FF1BC06F5F7F4F8F4F9F4FF4
:100B900016C0882311F096E911C0772321F09EE852
:100BA000872F762F05C0662371F096E8862F70E0B8
:100BB00060E02AF09A95660F771F881FDAF7880F92
:100BC0009695879597F9089597F99F6780E870E063
:100BD00060E008959FEF80EC089500240A941616B3
:100BE000170618060906089500240A94121613061B
:100BF000140605060895092E0394000C11F48823A9
:100C000052F0BB0F40F4BF2B11F460FF04C06F5FC4
:100C10007F4F8F4F9F4F089557FD9058440F551F9A
:100C200059F05F3F71F04795880F97FB991F61F06E
:100C30009F3F79F087950895121613061406551FE5
:100C4000F2CF4695F1DF08C0161617061806991F51
:100C5000F1CF86957105610508940895E894BB2746
:100C600066277727CB0197F908950E9448060C94D0
:100C7000FB050E94ED0538F00E94F40520F0952355
:100C800011F00C94E4050C94EA0511240C942F0641
:100C90000E940C0670F3959FC1F3950F50E0551F0D
:100CA000629FF001729FBB27F00DB11D639FAA27C1
:100CB000F00DB11DAA1F649F6627B00DA11D661F10
:100CC000829F2227B00DA11D621F739FB00DA11D31
:100CD000621F839FA00D611D221F749F3327A00DEB
:100CE000611D231F849F600D211D822F762F6A2F87
:100CF00011249F5750409AF0F1F088234AF0EE0FEC
:100D0000FF1FBB1F661F771F881F91505040A9F718
:100D10009E3F510580F00C94E4050C942F065F3F34
:100D2000E4F3983ED4F3869577956795B795F79554
:100D3000E7959F5FC1F7FE2B880F911D96958795CC
:080D400097F90895F894FFCF24
:080D4800140032000002000259
:00000001FF
