:100000000C942A000C9434000C9434000C943400AA
:100010000C9434000C9434000C9434000C94340090
:100020000C9434000C9434000C9434000C94340080
:100030000C9434000C9434000C9434000C94340070
:100040000C9434000C9434000C9434000C94340060
:100050000C94340011241FBECFE5D8E0DEBFCDBF25
:100060000E9436000C9448000C94000081B3806A12
:1000700081BBB89A8FB5826A8FBD8EB589618EBDFE
:100080008FEF90E097BD86BDC09A9BBD8ABDFFCF24
:04009000F894FFCF12
:00000001FF
