:100000000C942A000C9434000C9434000C943400AA
:100010000C9434000C9434000C9434000C94340090
:100020000C9434000C9434000C9434000C94340080
:100030000C9434000C9434000C9434000C94340070
:100040000C9434000C9434000C9434000C94340060
:100050000C94340011241FBECFE5D8E0DEBFCDBF25
:100060000E9436000C94B2000C940000B89A8EE006
:1000700088BB00E010E080E090E0C12CD12CC0E013
:10008000D0E0A0E0B0E0E0E0F0E060E070E0E12C83
:10009000F12CB39914C00196813921E09207E4F064
:1000A000C114D104B9F481E0EF2809F080E0E82E12
:1000B000F12C80E090E0CC24C394D12C0DC00F5FD4
:1000C0001F4F013921E012073CF000E010E0C12C85
:1000D000D12C02C080E090E0B1990CC06F5F7F4FDF
:1000E000613921E072077CF060E070E0AA24A394FB
:1000F000B12C09C03196E13921E0F20724F0E0E0AB
:10010000F0E0A12CB12CB2990AC01196A13921E0DE
:10011000B20774F0A0E0B0E041E050E009C02196E1
:10012000C13921E0D20724F0C0E0D0E040E050E047
:10013000E114F10469F4A114B10491F041155105E1
:1001400079F0C09A41E050E0AA24A394B12CA1CF49
:10015000A114B10419F44115510511F0C09A99CFB9
:08016000C09897CFF894FFCF7F
:00000001FF
