:100000000C942A000C943C000C943C000C943C0092
:100010000C943C000C943C000C943C000C943C0070
:100020000C943C000C943C000C943C000C943C0060
:100030000C943C000C943C000C943C000C943C0050
:100040000C943C000C943C000C943C000C943C0040
:100050000C943C0011241FBECFE5D8E0DEBFCDBF1D
:1000600020E0A0E6B0E001C01D92A236B207E1F7A1
:100070000E94DB000C94F6000C940000C19A82E010
:1000800080B988EF82B9089586B7846A86BF06B6BC
:1000900007FEFDCF81B1887F883031F081E090E0AC
:1000A0009093610080936000089586ED83B986B7D0
:1000B000846886BF06B607FEFDCF81B1887F883190
:1000C000A1F481E090E09093610080936000C09A79
:1000D00087EA91E60197F1F700C00000C09887EA2F
:1000E00091E60197F1F700C0000008958FEF83B902
:1000F00086B78F7D86BF86B7846886BF06B607FE43
:10010000FDCF81B1887F883231F081E090E090931B
:10011000610080936000089586B7846986BF089562
:100120008EE082B9089586B7846C86BF06B607FE56
:10013000FDCF81B1887F803631F081E090E09093EF
:10014000610080936000089586B7846C86BF06B610
:1001500007FEFDCF81B1887F803831F081E090E0EB
:10016000909361008093600083B18F3F21F498B336
:1001700081E0892788BB089586B7846C86BF06B660
:1001800007FEFDCF81B1887F803A31F081E090E0B9
:100190009093610080936000809160009091610075
:1001A000892B41F4C29A87EA91E60197F1F700C0E2
:1001B0000000C298089587B3856087BB0E943E0007
:1001C00086B7846086BFB199FECF87EA91E6019732
:1001D000F1F700C00000B199F6CF0E9444000E94E0
:1001E00055000E9476000E948C00EDCFF894FFCF5E
:00000001FF
