:100000000C942A000C943C000C94D0000C943C00FE
:100010000C943C000C943C000C943C000C943C0070
:100020000C943C000C943C000C943C000C943C0060
:100030000C943C000C943C000C943C000C943C0050
:100040000C9480000C943C000C943C000C943C00FC
:100050000C943C0011241FBECFE5D8E0DEBFCDBF1D
:1000600020E0A0E6B0E001C01D92A636B207E1F79D
:100070000E943E000C94A3020C940000789481B37B
:10008000806A81BBB89A3E9A86B18C6C86B98FB56E
:10009000826A8FBD8EB589618EBD8FEF93E097BD6B
:1000A00086BD939A8BB780688BBF85B7886085BF04
:1000B00085B5896685BD2FEF33E080916000909112
:1000C0006100009741F480916400909165009BBDB0
:1000D0008ABD13BCF2CF019731F48091620083BDD9
:1000E0001BBC1ABCEACF8091640090916500A90105
:1000F000481B590B5BBD4ABD8091620083BDDDCFBB
:100100001F920F920FB60F9211242F933F934F938C
:100110005F936F937F938F939F93AF93BF93EF936F
:10012000FF9384B125B190E0922B27B1203421F0C8
:10013000213441F480E405C090936500809364000D
:1001400081E487B96091640070916500072E000C0E
:10015000880B990B0E94AA0120E030EC4FE754E491
:100160000E94000120E030E04FE753E40E94360295
:100170000E9472017093630060936200369AFF914F
:10018000EF91BF91AF919F918F917F916F915F910F
:100190004F913F912F910F900FBE0F901F90189588
:1001A0001F920F920FB60F9211248F939F938BE49F
:1001B0009DE10197F1F700C0000083991AC098B340
:1001C00081E0892788BB8091600090916100009751
:1001D00019F481E090E004C0019739F482E090E0E6
:1001E000909361008093600004C0109261001092AF
:1001F00060009F918F910F900FBE0F901F901895E8
:100200000E9414010C94FC010E94F50158F00E9418
:10021000EE0140F029F45F3F29F00C94E501511103
:100220000C9430020C94EB010E940D0268F39923A8
:10023000B1F3552391F3951B550BBB27AA276217E2
:100240007307840738F09F5F5F4F220F331F441FEF
:10025000AA1FA9F335D00E2E3AF0E0E832D0915023
:100260005040E695001CCAF72BD0FE2F29D0660F10
:10027000771F881FBB1F261737074807AB07B0E853
:1002800009F0BB0B802DBF01FF2793585F4F3AF059
:100290009E3F510578F00C94E5010C9430025F3FCD
:1002A000E4F3983ED4F3869577956795B795F795DF
:1002B0009F5FC9F7880F911D9695879597F90895C7
:1002C000E1E0660F771F881FBB1F62177307840763
:1002D000BA0720F0621B730B840BBA0BEE1F88F772
:1002E000E09508950E9479016894B1110C94300250
:1002F00008950E94150288F09F5798F0B92F99270A
:10030000B751B0F0E1F0660F771F881F991F1AF000
:10031000BA95C9F714C0B13091F00E942F02B1E034
:1003200008950C942F02672F782F8827B85F39F033
:10033000B93FCCF3869577956795B395D9F73EF499
:1003400090958095709561957F4F8F4F9F4F089541
:10035000E89409C097FB3EF490958095709561955F
:100360007F4F8F4F9F4F9923A9F0F92F96E9BB2715
:100370009395F695879577956795B795F111F8CF91
:10038000FAF4BB0F11F460FF1BC06F5F7F4F8F4FFC
:100390009F4F16C0882311F096E911C0772321F0F2
:1003A0009EE8872F762F05C0662371F096E8862F8A
:1003B00070E060E02AF09A95660F771F881FDAF7E1
:1003C000880F9695879597F9089597F99F6780E824
:1003D00070E060E008959FEF80EC089500240A9497
:1003E0001616170618060906089500240A94121610
:1003F0001306140605060895092E0394000C11F443
:10040000882352F0BB0F40F4BF2B11F460FF04C0EF
:100410006F5F7F4F8F4F9F4F089557FD9058440F48
:10042000551F59F05F3F71F04795880F97FB991F53
:1004300061F09F3F79F08795089512161306140610
:10044000551FF2CF4695F1DF08C01616170618069D
:10045000991FF1CF86957105610508940895E89478
:10046000BB2766277727CB0197F908950E94490299
:100470000C94FC010E94EE0138F00E94F50120F07E
:10048000952311F00C94E5010C94EB0111240C94CC
:1004900030020E940D0270F3959FC1F3950F50E05A
:1004A000551F629FF001729FBB27F00DB11D639F26
:1004B000AA27F00DB11DAA1F649F6627B00DA11DCC
:1004C000661F829F2227B00DA11D621F739FB00D72
:1004D000A11D621F839FA00D611D221F749F3327E2
:1004E000A00D611D231F849F600D211D822F762F7B
:1004F0006A2F11249F5750409AF0F1F088234AF058
:10050000EE0FFF1FBB1F661F771F881F91505040C3
:10051000A9F79E3F510580F00C94E5010C94300240
:100520005F3FE4F3983ED4F3869577956795B7954A
:10053000F795E7959F5FC1F7FE2B880F911D969564
:0A054000879597F90895F894FFCF0E
:00000001FF
