:100000000C942A000C943C000C943C000C943C0092
:100010000C943C000C943C000C943C000C943C0070
:100020000C943C000C943C000C943C000C943C0060
:100030000C943C000C943C000C943C000C943C0050
:100040000C9445000C943C000C943C000C943C0037
:100050000C943C0011241FBECFE5D8E0DEBFCDBF1D
:1000600020E0A0E6B0E001C01D92A236B207E1F7A1
:100070000E943E000C9471000C9400007894B89A91
:100080003E9A86B18C6C86B9FFCF1F920F920FB645
:100090000F9211242F938F939F9384B125B190E0F9
:1000A000922B81159240A0F48091600090916100A4
:1000B00001969093610080936000893E934044F0E4
:1000C00098B381E0892788BB10926100109260008C
:1000D000369A9F918F912F910F900FBE0F901F9086
:0600E0001895F894FFCF13
:00000001FF
