:100000000C942A000C943F000C943F000C943F0089
:100010000C943F000C943F000C943F000C943F0064
:100020000C943F000C943F000C943F000C943F0054
:100030000C943F000C946C000C943F000C943F0017
:100040000C943F000C943F000C943F000C943F0034
:100050000C943F0011241FBECFE5D8E0DEBFCDBF1A
:1000600010E0A0E6B0E0EAEFF0E002C005900D92EB
:10007000A436B107D9F70E9441000C947B000C9480
:1000800000007894B89A599A8AB188698AB980B57B
:10009000866080BD10BC8CE089B920E35D9BFECFFB
:1000A000809162008CB98091620090E0C0970097C7
:1000B00081F0C09AE7EAF1E63197F1F700C000005D
:1000C000C098E7EAF1E63197F1F700C00000019728
:1000D000EECF20936200E2CF1F920F920FB60F92E5
:1000E00011248F938CB1809362008F910F900FBE7B
:0A00F0000F901F901895F894FFCFB1
:0400FA00FFFF3000D4
:00000001FF
