:100000000C942A000C943C000C943C000C943C0092
:100010000C943C000C943C000C943C000C943C0070
:100020000C943C000C943C000C943C000C943C0060
:100030000C943C000C943C000C943C000C943C0050
:100040000C9470000C943C000C943C000C943C000C
:100050000C943C0011241FBECFE5D8E0DEBFCDBF1D
:1000600020E0A0E6B0E001C01D92A436B207E1F79F
:100070000E943E000C94BE000C940000789481B362
:10008000806981BB8FB582628FBD8EB589618EBD5F
:1000900080E487B986B18C6C86B985B5896685BDE3
:1000A0008FEF90E097BD86BD8091620090916300D4
:1000B0006FEF73E00E9496002FEF269FC001279FED
:1000C000900D1124909363008093620080916200F0
:1000D00083BD809160009091610099BD88BDF6CF8D
:1000E0001F920F920FB60F9211242F938F939F930D
:1000F00084B125B190E0922B27B1203441F0213416
:1001000061F4909361008093600080E405C0909357
:1001100063008093620081E487B9369A9F918F9142
:100120002F910F900FBE0F901F90189597FB072EE1
:1001300016F4009407D077FD09D00E94AA0007FCAE
:1001400005D03EF4909581959F4F089570956195E7
:100150007F4F0895AA1BBB1B51E107C0AA1FBB1FFD
:10016000A617B70710F0A61BB70B881F991F5A9543
:10017000A9F780959095BC01CD010895F894FFCF23
:00000001FF
