:100000000C942A000C9434000C9434000C943400AA
:100010000C9434000C9434000C9434000C9449007B
:100020000C945B000C9434000C9434000C94340059
:100030000C9434000C9434000C9434000C94340070
:100040000C9434000C9434000C9434000C94340060
:100050000C94340011241FBECFE5D8E0DEBFCDBF25
:100060000E9436000C946D000C940000789487B3C5
:10007000816187BB8EB58B608EBD89B7886189BF72
:1000800082E19AE79BBD8ABD88E09DE399BD88BD6A
:10009000FFCF1F920F920FB60F9211248F939F9351
:1000A00098B381E0892788BB9F918F910F900FBEF5
:1000B0000F901F9018951F920F920FB60F92112458
:1000C0008F939F9398B380E1892788BB9F918F91ED
:0E00D0000F900FBE0F901F901895F894FFCF61
:00000001FF
