:100000000C942A000C9447000C9447000C94470071
:100010000C9447000C9447000C9447000C94470044
:100020000C9447000C9447000C9447000C94470034
:100030000C9447000C9447000C9447000C94470024
:100040000C94B5000C9447000C9447000C944700A6
:100050000C94470011241FBECFE5D8E0DEBFCDBF12
:1000600010E0A0E6B0E0ECE8F2E002C005900D92EE
:10007000A436B107D9F720E0A4E6B0E001C01D9294
:10008000AA36B207E1F70E9449000C9444010C948F
:100090000000789481B3806B81BB87B38F6087BB8E
:1000A00080E487B986B18C6C86B9599A539A80B529
:1000B000866080BD10BC8CE089B98FB582628FBD2F
:1000C0008EB589618EBD8FEF90E097BD86BD83B7F9
:1000D000896683BF20E030E08FEF9FEF42E653E276
:1000E00064E271E62938E3E13E07E4F15D9BFECF6F
:1000F000C29A8130910521F144F48F3FFFEF9F07B1
:10010000A9F0009721F57CB914C083309105D9F08E
:100110007CF084309105D9F45CB983EC99E00197C7
:10012000F1F700C000008EEF9FEF11C06CB901C065
:100130004CB9E3ECF9E03197F1F700C0000007C0DB
:10014000E091620002C0E0916000ECB9F2CF01964C
:10015000E0916200F0916300F9BDE8BDE0916000BC
:10016000ECBFC0CF2F5F3F4FBDCF1F920F920FB696
:100170000F9211242F933F938F939F9384B125B1B6
:1001800090E0922B27B1203479F0213499F49093A8
:1001900065008093640080E487B981E090E09093EB
:1001A00069008093680006C09093670080936600A2
:1001B00081E487B98091680090916900019709F006
:1001C00059C0209166003091670037FF02C02D5F53
:1001D0003F4F3595279535952795309363002093AC
:1001E0006200809164009091650097FD039695955B
:1001F0008795959587959093610080936000109204
:100200006900109268002432310581F034F4233201
:100210003105A9F422E230E00EC02136310549F063
:100220002236310561F423E630E005C025E230E0F6
:1002300002C020E630E030936300209362008432F5
:10024000910579F02CF48397A9F482E290E00EC036
:100250008136910549F08236910561F483E690E09C
:1002600005C085E290E002C080E690E090936100D6
:1002700080936000369A9F918F913F912F910F90BC
:0C0280000FBE0F901F901895F894FFCF50
:04028C007F007F0070
:00000001FF
