:100000000C942A000C943C000C943C000C943C0092
:100010000C943C000C943C000C943C000C943C0070
:100020000C943C000C943C000C943C000C945B0041
:100030000C943C000C9486000C943C000C943C0006
:100040000C943C000C943C000C943C000C943C0040
:100050000C943C0011241FBECFE5D4E0DEBFCDBF21
:1000600020E0A0E6B0E001C01D92A136B207E1F7A2
:100070000E943E000C9498000C940000789487E055
:1000800087BB11BA18BA10BC86E089B980B58668FA
:1000900080BD8AB1886D8AB922E09FE088B382274B
:1000A00088BBE7EAF1E63197F1F700C000005D9BFD
:1000B000FECF9CB9F3CF1F920F920FB60F9211246F
:1000C0002F938F939F938CB18093600098B384E0BB
:1000D000892788BB87EA91E60197F1F700C0000005
:1000E00080916000813651F4C1989FE32DE083E058
:1000F000915020408040E1F700C000009F918F9117
:100100002F910F900FBE0F901F9018951F920F9276
:100110000FB60F9211248F939F9398B381E0892794
:1001200088BB9F918F910F900FBE0F901F901895D5
:04013000F894FFCF71
:00000001FF
