:100000000C942A000C9434000C9434000C943400AA
:100010000C9434000C9434000C9434000C94340090
:100020000C9434000C9434000C9434000C94340080
:100030000C9434000C9434000C9434000C94340070
:100040000C9434000C9434000C9434000C94340060
:100050000C94340011241FBECFE5D8E0DEBFCDBF25
:100060000E9436000C9457000C94000081E087BB7E
:1000700088B388BB8EB581608EBD80E090E02CB5E2
:100080003DB52035334C41F4892B19F4C09A1DBC81
:100090001CBC81E090E0F3CF2CB53DB5283B38483F
:1000A00071F7019751F71DBC1CBCC098E6CFF894BE
:0200B000FFCF80
:00000001FF
